:020000040800F2
:100000000028002031100008F50E0008FB0E000843
:10001000010F0008070F00080D0F00080000000086
:10002000000000000000000000000000130F0008A6
:100030001F0F0008000000002B0F0008370F0008FA
:10004000791000087910000879100008791000086C
:10005000791000087910000879100008791000085C
:10006000791000087910000879100008791000084C
:10007000791000087910000879100008791000083C
:10008000791000087910000879100008791000082C
:10009000791000087910000879100008791000081C
:1000A00079100008450F0008791000087910000841
:1000B000590F0008791000080000000079100008AE
:1000C000791000080000000000000000791000080E
:1000D00000000000791000087910000800000000FE
:1000E0004D01000879100008791000080000000098
:1000F0000000000000000000000000000000000000
:0C01000000000000000000005FF808F1A3
:10010C0010B5054C237833B9044B13B10448AFF345
:10011C0000800123237010BDB800002000000000F7
:10012C00A026000808B5034B1BB103490348AFF3E5
:10013C00008008BD00000000BC000020A0260008C4
:10014C0080B400AF334B5B6903F40053002B1AD01F
:10015C00304B5B692F4A43F4005353612D4B1B68A2
:10016C002C4A23F4005313602B4B01221A602B4BA7
:10017C0000221A602A4B00225A62294B1B68284A1B
:10018C0043F001031360234B5B6903F48043002BA2
:10019C001AD0204B5B691F4A43F4804353611D4BBB
:1001AC001B681C4A23F4804313601B4B01225A60CA
:1001BC001A4B01221A601A4B00225A62184B1B6808
:1001CC00174A43F001031360124B5B6903F40043BD
:1001DC00002B1AD00F4B5B690E4A43F4004353615A
:1001EC000C4B1B680B4A23F4004313600A4B01228F
:1001FC009A600A4B02221A60094B00225A62084B81
:10020C001B68074A43F00103136000BFBD4680BC66
:10021C00704700BF00040140E0000020AC0100204A
:10022C00002C014080B500AFB74B1B68002B07D0EA
:10023C00002000F09BFEB54B1B78184600F0E0FB4D
:10024C00B34B1B78052B00F2548101A252F823F01A
:10025C0075020008C9020008C9020008C90200089A
:10026C007903000839040008A74B9B68002B04D0C5
:10027C00022000F07BFE00F015FD002000F0B2F92A
:10028C000346002B10D0012000F070FEA14B42F26F
:10029C009242DA60002000F0C9F99D4B01221A70DD
:1002AC009A4B01221A702DE1022000F09BF90346B3
:1002BC00002B00F0208100F097FC1CE1924B5B6856
:1002CC00002B0ED0012000F051FE924BDB688F4AC0
:1002DC001278114641F249228A4011468D4A4B4010
:1002EC00D360002000F07EF90346002B1DD00020C7
:1002FC0000F09CF9864B1B7801335A4203F0030340
:10030C0002F0030258BF5342DAB2814B1A70804B91
:10031C001A787E4B1A707D4B1B781A4641F2492392
:10032C0003FA02F27B4BDA60ECE0012000F05AF9A0
:10033C000346002B09D0012000F078F9744B0422FD
:10034C001A70754B01221A60DCE0022000F04AF9A9
:10035C000346002B00F0D180022000F067F96C4BB3
:10036C0005221A706D4B01221A60CBE0664B5B685C
:10037C00002B0ED0012000F0F9FD664BDB68634AC0
:10038C001278114641F249228A401146614A4B408B
:10039C00D360614B1B68002B07D05C4B1B78184655
:1003AC0000F068FB5C4B00221A60012000F01AF987
:1003BC000346002B06D0012000F038F9564B0122E1
:1003CC001A609FE0002000F00DF90346002B1DD0B1
:1003DC00002000F02BF94D4B1B7801335A4203F0EF
:1003EC00030302F0030258BF5342DAB2474B1A70B0
:1003FC00464B1A78464B1A70444B1B781A4641F2FE
:10040C00492303FA02F2434BDA607BE0022000F04E
:10041C00E9F80346002B72D0022000F007F93C4BA0
:10042C0005221A703D4B01221A606BE0364B5B685B
:10043C00002B0ED0012000F099FD364BDB68334ABF
:10044C001278114641F249228A401146314A4B40FA
:10045C00D360324B1B68002B07D02C4B1B781846F3
:10046C0000F066FB2D4B00221A60022000F0BAF857
:10047C000346002B09D0022000F0D8F8244B0022B0
:10048C001A70224B00221A703CE0012000F0AAF8EE
:10049C000346002B09D0012000F0C8F81C4B0422A5
:1004AC001A701D4B01221A602CE0002000F09AF803
:1004BC000346002B25D0002000F0B8F8134B1B7816
:1004CC0001335A4203F0030302F0030258BF5342B4
:1004DC00DAB20E4B1A700D4B1A780D4B1A700B4B7F
:1004EC001B781A4641F2492303FA02F2094BDA60EF
:1004FC0008E000BF06E000BF04E000BF02E000BF60
:10050C0000E000BF80BD00BF10010020D40000201F
:10051C00D500002000080140DC000020D80000209D
:10052C0080B582B000AF7860274A7B6852F82320F0
:10053C0026497B6841F82320254A7B6832F8133022
:10054C001946244801F07EF8034619461E4A7B687A
:10055C0042F823101C4A7B6852F823201B497B6805
:10056C0051F823309A4221D11B4A7B6832F8133060
:10057C00013399B2184A7B6822F81310164A7B682B
:10058C0032F81330012B1BD90F4A7B6852F8232009
:10059C0012497B6841F82320104A7B6852F82330BB
:1005AC00012B0DD10E4B01221A6009E00A4A7B681F
:1005BC00002122F81310094A7B68002142F823100D
:1005CC0000BF0837BD4680BD180000200C0000207D
:1005DC000400002000080140F8000020EC0000207E
:1005EC000000002080B483B000AF0346FB71FB79A0
:1005FC00022B01D9FF230FE0FB790A4A52F8233072
:10060C00002B07D1FB79084A52F82330002B01D07C
:10061C00012300E00023DBB218460C37BD4680BC3A
:10062C00704700BFEC000020E000002080B483B0D5
:10063C0000AF7860044A7B68002142F8231000BFA9
:10064C000C37BD4680BC7047E000002080B582B0FE
:10065C0000AF78607B681B68B3F1804F02D100F06B
:10066C00ABFC37E01D4B1B68002B2ED01C4B9B6842
:10067C0003F40053002B09D11A4B01221A601A4BB8
:10068C0000221A60154B00221A601EE0144B9B6866
:10069C0003F48043002B09D1124B01225A60124BF8
:1006AC0001221A600D4B00221A600EE00C4B9B6865
:1006BC0003F40043002B08D10A4B01229A600A4B29
:1006CC0002221A60054B00221A60074B1B68184661
:1006DC00FFF726FF0837BD4680BD00BF0000002095
:1006EC0000080140E0000020AC01002080B500AF04
:1006FC0000F0BEFC00F014F800F0EAF800F09CF8F2
:10070C0000F04AF8044801F005FC044801F002FC32
:10071C00FFF788FDFCE700BF640100201C010020EE
:10072C0080B590B000AF07F11803282200211846BD
:10073C0001F0A8FF3B1D00221A605A609A60DA6033
:10074C001A610223BB610123BB621023FB620023ED
:10075C007B6307F11803184600F0A4FF0346002B37
:10076C0001D000F019F90F237B600023BB6000233C
:10077C00FB6000233B6100237B613B1D002118467D
:10078C0001F010FA0346002B01D000F005F900BF70
:10079C004037BD4680BD000080B586B000AF07F184
:1007AC00080300221A605A609A60DA603B46002205
:1007BC001A605A601E4B1F4A1A601D4B41F63F725D
:1007CC005A601B4B00229A60194B0322DA60184BBB
:1007DC0000221A61164B00225A61154B00229A61B5
:1007EC00134801F047FB0346002B01D000F0D4F86E
:1007FC004FF48053BB6007F1080319460C4801F015
:10080C00DDFC0346002B01D000F0C6F800233B6052
:10081C0000237B603B461946054801F0A5FE0346C4
:10082C00002B01D000F0B8F800BF1837BD4680BDD2
:10083C001C010020002C014080B586B000AF07F1F0
:10084C00080300221A605A609A60DA603B46002264
:10085C001A605A601D4B4FF080421A601B4B41F6D8
:10086C003F725A60194B00229A60184B0922DA60C9
:10087C00164B00221A61154B00229A61134801F0A5
:10088C00F9FA0346002B01D000F086F84FF48053A0
:10089C00BB6007F1080319460C4801F08FFC0346B6
:1008AC00002B01D000F078F800233B6000237B6024
:1008BC003B461946054801F057FE0346002B01D074
:1008CC0000F06AF800BF1837BD4680BD64010020F7
:1008DC0080B586B000AF07F1080300221A605A6099
:1008EC009A60DA60294B9B69284A43F004039361B0
:1008FC00264B9B6903F004037B607B68234B9B694D
:10090C00224A43F008039361204B9B6903F00803D0
:10091C003B603B68002241F6FE711D4800F0A9FEC9
:10092C0000224FF60F611B4800F0A3FE41F6FE7348
:10093C00BB600123FB6000233B6102237B6107F159
:10094C0008031946124800F003FD4FF60F63BB6015
:10095C000123FB6000233B6102237B6107F1080349
:10096C0019460C4800F0F4FC4FF46043BB600023C4
:10097C00FB6001233B6107F108031946044800F0B2
:10098C00E7FC00BF1837BD4680BD00BF0010024019
:10099C0000080140000C014080B400AF72B600BFEB
:1009AC00FEE7000080B483B000AF78607A68114B2A
:1009BC0083FB02139910D317C91A0B469B000B44E7
:1009CC005B00D31A7B600C4BDB680B4A43F47E4311
:1009DC00D360094BDB6809497A6831F8122052025E
:1009EC00D2431146044A0B40D36000BF0C37BD46BE
:1009FC0080BC704767666666000C01407C00002076
:100A0C0080B582B000AF0346FB71164BDB68154A0C
:100A1C0043F00F03D360FA79134B1B681349920010
:100A2C00134451F823301846FFF7BCFF0D4BDB681D
:100A3C000D4A12680E4931F81220D2431146094A68
:100A4C000B40D360084B1B6801335A4203F003037D
:100A5C0002F0030258BF5342034A136000BF083729
:100A6C00BD4680BD000C0140040100203400002074
:100A7C007400002080B483B000AF0346FB71FB7997
:100A8C0029491A010A4404321268013226491B0111
:100A9C000B4404331A60FB79234A1B011344196875
:100AAC00FB79214A1B01134404331B681F4A82FB48
:100ABC0003029210DB17D21AFB790A441A491B0164
:100ACC000B441A60FB79184A1B0113440433196850
:100ADC00F879164B83FB01239A10CB17D21A1346C5
:100AEC009B0013445B00CA1A0F4903010B440433E7
:100AFC001A60FB790C4A1B0113441968F8790B4BEB
:100B0C0083FB01239A10CB17D21A13469B00134474
:100B1C005B00CA1A044903010B441A6000BF0C376E
:100B2C00BD4680BC704700BF340000206766666617
:100B3C0080B483B000AF0346FB71FB79002B05D169
:100B4C00104B00221A60104B01221A60FB790F4ADD
:100B5C001B0113441A6813469B0013445B0019468F
:100B6C00FB790A4A1B01134404331A68FB79013BD5
:100B7C000A44074941F8232000BF0C37BD4680BC0E
:100B8C00704700BF0001002030000020340000201E
:100B9C002400002080B485B000AF786039603B68D9
:100BAC00002B01D1012300E00723FB600D4BDB6818
:100BBC003F21FA6801FA02F211460A4A0B43D3604C
:100BCC00084BDB68F9687A680A44092101FA02F2D9
:100BDC00D2431146034A0B40D36000BF1437BD46C5
:100BEC0080BC70470008014080B500AF284B002244
:100BFC001A60284B01221A60254B1B6800211846ED
:100C0C00FFF7C8FF234B1B6801211846FFF7C2FFF3
:100C1C001F4B1B68204A52F82330204A82FB0312D8
:100C2C009210DB17D31A1E4A1360194B1B681A4A11
:100C3C0052F82310194B83FB01239A10CB17D21AAD
:100C4C0013469B0013445B00CA1A154B5A60114B98
:100C5C001B68114A52F82330104A82FB031292107F
:100C6C00DB17D31A0E4A93600A4B1B680A4A52F8D8
:100C7C0023100A4B83FB01239A10CB17D21A13466D
:100C8C009B0013445B00CA1A054BDA6000BF80BDA1
:100C9C0000010020300000202400002067666666FA
:100CAC003400002080B500AF4E4B1A6813469B00F1
:100CBC0013445B001A464B4B5B681344002B1BDC44
:100CCC00494B1B68591C494B83FB0132CB17D21A79
:100CDC0013465B001344CA1A434B1A60424B1B6801
:100CEC00434A52F82330434A13603F4B1B680021A0
:100CFC001846FFF74FFF0CE03A4B1A6813469B005F
:100D0C0013445B001A46374B5B681344013B394A6A
:100D1C001360384B1B68384A82FB03129210DB17A6
:100D2C00D31A304A1360334B1968334B83FB0123BE
:100D3C009A10CB17D21A13469B0013445B00CA1AA5
:100D4C00284B5A60274B9A6813469B0013445B0050
:100D5C001A46244BDB681344002B1BDC274B1B6807
:100D6C00591C224B83FB0132CB17D21A13465B0062
:100D7C001344CA1A214B1A60204B1B681C4A52F8A8
:100D8C0023301F4A13601D4B1B6801211846FFF7C7
:100D9C0001FF0CE0134B9A6813469B0013445B0055
:100DAC001A46104BDB681344013B154A1360144B75
:100DBC001B68114A82FB03129210DB17D31A094AE3
:100DCC0093600F4B19680C4B83FB01239A10CB17C4
:100DDC00D21A13469B0013445B00CA1A014BDA600B
:100DEC0000BF80BD34000020000100205655555531
:100DFC002400002008010020676666663000002091
:100E0C000C01002080B485B000AF154B9B69144ACF
:100E1C0043F001039361124B9B6903F00103BB6028
:100E2C00BB680F4BDB690E4A43F08053D3610C4B0C
:100E3C00DB6903F080537B607B680A4B5B68FB606B
:100E4C00FB6823F0E063FB60FB6843F08063FB60AE
:100E5C00044AFB68536000BF1437BD4680BC704722
:100E6C00001002400000014080B584B000AF7860F3
:100E7C007B681B681A4A934214D11A4B9B69194A16
:100E8C0043F400639361174B9B6903F40063FB60AD
:100E9C00FB6800220021192000F023FA192000F031
:100EAC003CFA18E07B681B68B3F1804F13D10D4BF3
:100EBC00DB690C4A43F00103D3610A4BDB6903F095
:100ECC000103BB60BB68002200211C2000F009FA62
:100EDC001C2000F022FA00BF1037BD4680BD00BFB9
:100EEC00002C01400010024080B400AFFEE780B43B
:100EFC0000AFFEE780B400AFFEE780B400AFFEE7C2
:100F0C0080B400AFFEE780B400AF00BFBD4680BC2C
:100F1C00704780B400AF00BFBD4680BC704780B442
:100F2C0000AF00BFBD4680BC704780B500AF00F07D
:100F3C00E5F800BF80BD000080B500AF024801F0AD
:100F4C0035F800BF80BD00BF1C01002080B500AF8C
:100F5C00024801F02BF800BF80BD00BF64010020E7
:100F6C0080B400AF00BFBD4680BC704780B483B076
:100F7C0000AF78607B68022B11DC0B4A7B6852F85F
:100F8C0023200A4B1B6892FBF3F209497B6841F85A
:100F9C002320084A7B68002142F8231000E000BFA0
:100FAC000C37BD4680BC7047A0000020AC00002070
:100FBC00940000201001002080B483B000AF002307
:100FCC007B6021E0154A7B6852F82330002B05D05A
:100FDC00124A7B6852F82330013B00E000230F4992
:100FEC007A6841F822300D4A7B6852F82330002B86
:100FFC000CBF01230023DBB21946094A7B6842F877
:10100C0023107B6801337B607B68022BDADD00BF29
:10101C0000BF0C37BD4680BC704700BF9400002059
:10102C00100100200C480D490D4A002302E0D45851
:10103C00C4500433C4188C42F9D30A4A0A4C002316
:10104C0001E013600432A242FBD3FFF789FF01F0E9
:10105C00F5FAFFF74BFB704700000020B8000020AA
:10106C00E0260008B8000020B4010020FEE70000D4
:10107C0080B500AF084B1B68074A43F010031360A0
:10108C00032000F023F9002000F008F8FFF7BAFE67
:10109C000023184680BD00BF0020024080B582B0FE
:1010AC0000AF7860124B1A68124B1B7819464FF43C
:1010BC007A73B3FBF1F3B2FBF3F3184600F03BF990
:1010CC000346002B01D001230EE07B680F2B0AD8BE
:1010DC00002279684FF0FF3000F003F9064A7B6874
:1010EC001360002300E0012318460837BD4680BD7D
:1010FC0090000020B4000020B000002080B400AFAD
:10110C00054B1B781A46054B1B681344034A1360A6
:10111C0000BFBD4680BC7047B4000020B001002069
:10112C0080B400AF024B1B681846BD4680BC7047AC
:10113C00B001002080B485B000AF78607B6803F00C
:10114C000703FB600C4BDB68BB60BA684FF6FF0310
:10115C001340BB60FB681A02BB68134343F0BF63C8
:10116C0043F40033BB60044ABB68D36000BF143740
:10117C00BD4680BC704700BF00ED00E080B400AFFE
:10118C00044BDB681B0A03F007031846BD4680BC02
:10119C00704700BF00ED00E080B483B000AF0346A1
:1011AC00FB7197F90730002B0BDBFB7903F01F0267
:1011BC00064997F907305B09012000FA02F241F861
:1011CC00232000BF0C37BD4680BC704700E100E017
:1011DC0080B483B000AF03463960FB7197F90730D8
:1011EC00002B0ADB3B68DAB20C4997F90730120185
:1011FC00D2B20B4483F800230AE03B68DAB2084908
:10120C00FB7903F00F03043B1201D2B20B441A76A4
:10121C0000BF0C37BD4680BC704700BF00E100E04A
:10122C0000ED00E080B489B000AFF860B9607A607E
:10123C00FB6803F00703FB61FB69C3F10703042B95
:10124C0028BF0423BB61FB690433062B02D9FB695D
:10125C00033B00E000237B614FF0FF32BB6902FAD5
:10126C0003F3DA43BB681A407B699A404FF0FF31B5
:10127C007B6901FA03F3D9437B680B40134318468F
:10128C002437BD4680BC704780B582B000AF786013
:10129C007B68013BB3F1807F01D301230FE00A4A45
:1012AC007B68013B53600F214FF0FF30FFF790FF3D
:1012BC00054B00229A60044B07221A600023184643
:1012CC000837BD4680BD00BF10E000E080B582B09D
:1012DC0000AF78607868FFF72DFF00BF0837BD4678
:1012EC0080BD80B586B000AF0346B9607A60FB73F1
:1012FC0000237B61FFF742FF78617A68B9687869EF
:10130C00FFF790FF024697F90F3011461846FFF78A
:10131C005FFF00BF1837BD4680BD80B582B000AFFF
:10132C000346FB7197F907301846FFF735FF00BFEE
:10133C000837BD4680BD80B582B000AF7860786854
:10134C00FFF7A2FF034618460837BD4680BD0000D4
:10135C0080B48BB000AF7860396000237B620023CF
:10136C003B6248E101227B6A02FA03F3FB613B68B2
:10137C001B68FA691340BB61BA69FB699A4240F079
:10138C0037813B685B68A34A93425ED0A14A934283
:10139C0075D8A14A934258D09F4A93426FD89F4A1E
:1013AC00934252D09D4A934269D89D4A93424CD065
:1013BC009B4A934263D89B4A934246D0994A9342A4
:1013CC005DD8122B2AD8122B59D801A252F823F02F
:1013DC005714000831140008431400088514000841
:1013EC008B1400088B1400088B1400088B14000855
:1013FC008B1400088B1400088B1400088B14000845
:10140C008B1400088B1400088B1400088B14000834
:10141C008B140008391400084D140008824A9342BA
:10142C0013D02CE03B68DB683B6229E03B68DB684F
:10143C0004333B6224E03B68DB6808333B621FE00B
:10144C003B68DB680C333B621AE03B689B68002B03
:10145C0002D104233B6213E03B689B68012B05D14E
:10146C0008233B627B68FA691A6109E008233B6236
:10147C007B68FA695A6103E000233B6200E000BF1D
:10148C00BB69FF2B01D87B6801E07B6804337B616F
:10149C00BB69FF2B02D87B6A9B0002E07B6A083B8E
:1014AC009B003B617B691A680F213B6901FA03F3CE
:1014BC00DB431A40396A3B6901FA03F31A437B692F
:1014CC001A603B685B6803F08053002B00F090803F
:1014DC00564B9B69554A43F001039361534B9B69EF
:1014EC0003F00103BB60BB68514A7B6A9B08023363
:1014FC0052F82330FB607B6A03F003039B000F223E
:10150C0002FA03F3DB43FA681340FB607B68494A39
:10151C0093420DD07B68484A934207D07B68474A78
:10152C00934201D1022304E0032302E0012300E0F3
:10153C0000237A6A02F0030292009340FA68134384
:10154C00FB603B497B6A9B080233FA6841F8232015
:10155C003B685B6803F48033002B06D0384B1A6869
:10156C003749BB6913430B6006E0354B1A68BB69FE
:10157C00DB43334913400B603B685B6803F4003377
:10158C00002B06D02E4B5A682D49BB6913434B6078
:10159C0006E02B4B5A68BB69DB43294913404B606F
:1015AC003B685B6803F48013002B06D0244B9A68CD
:1015BC002349BB6913438B6006E0214B9A68BB69D6
:1015CC00DB431F4913408B603B685B6803F40013DB
:1015DC00002B06D01A4BDA681949BB691343CB6050
:1015EC0006E0174BDA68BB69DB4315491340CB6047
:1015FC007B6A01337B623B681A687B6A22FA03F3CD
:10160C00002B7FF4AFAE00BF00BF2C37BD4680BCB3
:10161C00704700BF00003210000031100000221093
:10162C0000002110000012100000111000100240E8
:10163C000000014000080140000C01400010014076
:10164C000004014080B485B000AF78600B467B800D
:10165C007B689A687B881340002B02D00123FB73B4
:10166C0001E00023FB73FB7B18461437BD4680BC9E
:10167C00704780B483B000AF78600B467B80134614
:10168C007B707B78002B03D07A887B681A6103E02F
:10169C007B881A047B681A6100BF0C37BD4680BC7E
:1016AC007047000080B586B000AF78607B68002B77
:1016BC0001D101236CE27B681B6803F00103002B52
:1016CC0000F08780924B5B6803F00C03042B0CD06A
:1016DC008F4B5B6803F00C03082B12D18C4B5B68AF
:1016EC0003F48033B3F5803F0BD1894B1B6803F4B3
:1016FC000033002B6CD07B685B68002B68D1012316
:10170C0046E27B685B68B3F5803F06D1804B1B6873
:10171C007F4A43F4803313602EE07B685B68002BB8
:10172C000CD17B4B1B687A4A23F480331360784BC3
:10173C001B68774A23F4802313601DE07B685B6889
:10174C00B3F5A02F0CD1724B1B68714A43F4802364
:10175C0013606F4B1B686E4A43F4803313600BE0CD
:10176C006B4B1B686A4A23F480331360684B1B680D
:10177C00674A23F4802313607B685B68002B13D0CB
:10178C00FFF7CEFC386108E0FFF7CAFC02463B6964
:10179C00D31A642B01D90323FAE15D4B1B6803F4C4
:1017AC000033002BF0D014E0FFF7BAFC386108E0EE
:1017BC00FFF7B6FC02463B69D31A642B01D903230D
:1017CC00E6E1534B1B6803F40033002BF0D100E02F
:1017DC0000BF7B681B6803F00203002B63D04C4BEB
:1017EC005B6803F00C03002B0BD0494B5B6803F0D8
:1017FC000C03082B1CD1464B5B6803F48033002B85
:10180C0016D1434B1B6803F00203002B05D07B68F9
:10181C001B69012B01D00123BAE13D4B1B6823F05E
:10182C00F8027B685B69DB00394913430B603AE0D3
:10183C007B681B69002B20D0364B01221A60FFF706
:10184C006FFC386108E0FFF76BFC02463B69D31A6A
:10185C00022B01D903239BE12D4B1B6803F00203E0
:10186C00002BF0D02A4B1B6823F0F8027B685B69D5
:10187C00DB00274913430B6015E0264B00221A604E
:10188C00FFF74EFC386108E0FFF74AFC02463B6963
:10189C00D31A022B01D903237AE11D4B1B6803F0E9
:1018AC000203002BF0D17B681B6803F00803002BAC
:1018BC003AD07B689B69002B19D0174B01221A6018
:1018CC00FFF72EFC386108E0FFF72AFC02463B6963
:1018DC00D31A022B01D903235AE10D4B5B6A03F097
:1018EC000203002BF0D0012000F0A6FA1CE00A4BFA
:1018FC0000221A60FFF714FC38610FE0FFF710FCB0
:10190C0002463B69D31A022B08D9032340E100BFDE
:10191C000010024000004242800442429E4B5B6A2F
:10192C0003F00203002BE9D17B681B6803F004036E
:10193C00002B00F0A6800023FB75974BDB6903F0AE
:10194C008053002B0DD1944BDB69934A43F08053A9
:10195C00D361914BDB6903F08053BB60BB680123FF
:10196C00FB758E4B1B6803F48073002B18D18B4BCB
:10197C001B688A4A43F480731360FFF7D1FB38610C
:10198C0008E0FFF7CDFB02463B69D31A642B01D963
:10199C000323FDE0814B1B6803F48073002BF0D014
:1019AC007B68DB68012B06D17B4B1B6A7A4A43F0C0
:1019BC00010313622DE07B68DB68002B0CD1764BA6
:1019CC001B6A754A23F001031362734B1B6A724A3C
:1019DC0023F0040313621CE07B68DB68052B0CD13D
:1019EC006D4B1B6A6C4A43F0040313626A4B1B6A0F
:1019FC00694A43F0010313620BE0674B1B6A664AAA
:101A0C0023F001031362644B1B6A634A23F0040343
:101A1C0013627B68DB68002B15D0FFF781FB386104
:101A2C000AE0FFF77DFB02463B69D31A41F288328C
:101A3C00934201D90323ABE0574B1B6A03F002031B
:101A4C00002BEED014E0FFF76BFB38610AE0FFF7D8
:101A5C0067FB02463B69D31A41F28832934201D9A3
:101A6C00032395E04C4B1B6A03F00203002BEED1D1
:101A7C00FB7D012B05D1484BDB69474A23F0805392
:101A8C00D3617B68DB69002B00F08180424B5B6883
:101A9C0003F00C03082B61D07B68DB69022B46D169
:101AAC003F4B00221A60FFF73BFB386108E0FFF761
:101ABC0037FB02463B69D31A022B01D9032367E09B
:101ACC00354B1B6803F00073002BF0D17B681B6A4D
:101ADC00B3F5803F08D1304B5B6823F400327B6850
:101AEC009B682D4913434B602B4B5B6823F474129A
:101AFC007B68196A7B685B6A0B43274913434B600D
:101B0C00274B01221A60FFF70BFB386108E0FFF747
:101B1C0007FB02463B69D31A022B01D9032337E09A
:101B2C001D4B1B6803F00073002BF0D02FE01C4BF7
:101B3C0000221A60FFF7F4FA386108E0FFF7F0FAB8
:101B4C0002463B69D31A022B01D9032320E0124B26
:101B5C001B6803F00073002BF0D118E07B68DB6985
:101B6C00012B01D1012313E00B4B5B68FB60FB687D
:101B7C0003F480327B681B6A9A4206D1FB6803F43B
:101B8C0070127B685B6A9A4201D0012300E000234B
:101B9C0018461837BD4680BD00100240007000404A
:101BAC006000424280B584B000AF786039607B68D9
:101BBC00002B01D10123D0E06A4B1B6803F0070313
:101BCC003A689A4210D9674B1B6823F007026549A3
:101BDC003B6813430B60634B1B6803F007033A68C5
:101BEC009A4201D00123B8E07B681B6803F0020322
:101BFC00002B20D07B681B6803F00403002B05D05E
:101C0C00594B5B68584A43F4E06353607B681B682C
:101C1C0003F00803002B05D0534B5B68524A43F486
:101C2C0060535360504B5B6823F0F0027B689B68F9
:101C3C004D4913434B607B681B6803F00103002B79
:101C4C0040D07B685B68012B07D1474B1B6803F4C2
:101C5C000033002B15D101237FE07B685B68022BDE
:101C6C0007D1414B1B6803F00073002B09D10123F2
:101C7C0073E03D4B1B6803F00203002B01D10123E1
:101C8C006BE0394B5B6823F003027B685B68364979
:101C9C0013434B60FFF744FAF8600AE0FFF740FA91
:101CAC000246FB68D31A41F28832934201D90323CE
:101CBC0053E02D4B5B6803F00C027B685B689B0068
:101CCC009A42EBD1274B1B6803F007033A689A4200
:101CDC0010D2244B1B6823F0070222493B681343A4
:101CEC000B60204B1B6803F007033A689A4201D043
:101CFC00012332E07B681B6803F00403002B08D03F
:101D0C00194B5B6823F4E0627B68DB68164913436C
:101D1C004B607B681B6803F00803002B09D0124B47
:101D2C005B6823F460527B681B69DB000E4913432C
:101D3C004B6000F021F802460B4B5B681B0903F06B
:101D4C000F030A49CB5C22FA03F3094A1360094BCF
:101D5C001B681846FFF7A2F9002318461037BD463A
:101D6C0080BD00BF0020024000100240C8260008C1
:101D7C0090000020B000002090B48AB000AF2A4B35
:101D8C003C1D0FCB84E80F0040F201233B80002365
:101D9C00FB610023BB6100237B6200237B6100237A
:101DAC003B62224B5B68FB61FB6903F00C03042B69
:101DBC0002D0082B03D02DE01D4B3B622DE0FB69BC
:101DCC009B0C03F00F0307F12802134413F8243C77
:101DDC007B61FB6903F48033002B13D0134B5B68DE
:101DEC005B0C03F0010307F12802134413F8283CA1
:101DFC00BB617B690E4A02FB03F2BB69B2FBF3F3D6
:101E0C007B6204E07B690B4A02FB03F37B627B6A17
:101E1C003B6202E0064B3B6200BF3B6A1846283728
:101E2C00BD4690BC704700BFB826000800100240A9
:101E3C0000127A0000093D0080B485B000AF7860D4
:101E4C000A4B1B680A4AA2FB03235B0A7A6802FB53
:101E5C0003F3FB6000BFFB685A1EFA60002BF9D13C
:101E6C0000BF00BF1437BD4680BC704790000020F7
:101E7C00D34D621080B582B000AF78607B68002BC8
:101E8C0001D1012341E07B6893F83D30DBB2002B9C
:101E9C0006D17B68002283F83C207868FEF7E4FFCB
:101EAC007B68022283F83D207B681A687B680433C8
:101EBC001946104600F06AFA7B68012283F8462026
:101ECC007B68012283F83E207B68012283F83F2047
:101EDC007B68012283F840207B68012283F8412033
:101EEC007B68012283F842207B68012283F843201F
:101EFC007B68012283F844207B68012283F845200B
:101F0C007B68012283F83D20002318460837BD4624
:101F1C0080BD000080B485B000AF78607B6893F81A
:101F2C003D30DBB2012B01D0012335E07B6802226E
:101F3C0083F83D207B681B68DA687B681B6842F07D
:101F4C000102DA607B681B68164A934209D07B68F1
:101F5C001B68B3F1804F04D07B681B68124A934214
:101F6C0011D17B681B689B6803F00703FB60FB685F
:101F7C00062B10D07B681B681A687B681B6842F0C4
:101F8C0001021A6007E07B681B681A687B681B6893
:101F9C0042F001021A60002318461437BD4680BC7B
:101FAC00704700BF002C01400004004080B582B097
:101FBC0000AF78607B681B681B6903F00203022B7F
:101FCC0022D17B681B68DB6803F00203022B1BD158
:101FDC007B681B686FF002021A617B6801221A771A
:101FEC007B681B689B6903F00303002B03D07868A4
:101FFC0000F0B1F905E0786800F0A4F9786800F019
:10200C00B3F97B6800221A777B681B681B6903F0A5
:10201C000403042B22D17B681B68DB6803F00403E8
:10202C00042B1BD17B681B686FF004021A617B6860
:10203C0002221A777B681B689B6903F44073002BA0
:10204C0003D0786800F087F905E0786800F07AF939
:10205C00786800F089F97B6800221A777B681B6826
:10206C001B6903F00803082B22D17B681B68DB6813
:10207C0003F00803082B1BD17B681B686FF0080268
:10208C001A617B6804221A777B681B68DB6903F092
:10209C000303002B03D0786800F05DF905E0786845
:1020AC0000F050F9786800F05FF97B6800221A772D
:1020BC007B681B681B6903F01003102B22D17B6813
:1020CC001B68DB6803F01003102B1BD17B681B68AB
:1020DC006FF010021A617B6808221A777B681B6804
:1020EC00DB6903F44073002B03D0786800F033F9FC
:1020FC0005E0786800F026F9786800F035F97B681F
:10210C0000221A777B681B681B6903F00103012B03
:10211C000ED17B681B68DB6803F00103012B07D130
:10212C007B681B686FF001021A617868FEF78EFA03
:10213C007B681B681B6903F08003802B0ED17B68C6
:10214C001B68DB6803F08003802B07D17B681B685E
:10215C006FF080021A61786800F067FA7B681B6880
:10216C001B6903F04003402B0ED17B681B68DB68B6
:10217C0003F04003402B07D17B681B686FF04002D3
:10218C001A61786800F0F9F87B681B681B6903F02A
:10219C002003202B0ED17B681B68DB6803F0200327
:1021AC00202B07D17B681B686FF020021A617868BE
:1021BC0000F032FA00BF0837BD4680BD80B584B050
:1021CC0000AF786039607B6893F83C30012B01D10B
:1021DC000223B3E07B68012283F83C207B68022257
:1021EC0083F83D207B681B689B68FB60FB6823F0D1
:1021FC007703FB60FB6823F47F43FB607B681B6801
:10220C00FA689A603B681B68B3F5005F3ED0B3F583
:10221C00005F00F28780B3F5805F00F08580B3F536
:10222C00805F7FD8702B1AD0702B7BD8602B50D04E
:10223C00602B77D8502B3CD0502B73D8402B58D0D8
:10224C00402B6FD8302B64D0302B6BD8202B60D028
:10225C00202B67D8002B5CD0102B5AD062E07B6807
:10226C0018683B6899683B685A683B68DB6800F003
:10227C005CF97B681B689B68FB60FB6843F0770329
:10228C00FB607B681B68FA689A604EE07B68186894
:10229C003B6899683B685A683B68DB6800F045F915
:1022AC007B681B689A687B681B6842F480429A6062
:1022BC003BE07B6818683B6859683B68DB681A46EA
:1022CC0000F0BCF87B681B685021184600F013F92D
:1022DC002BE07B6818683B6859683B68DB681A46DA
:1022EC0000F0DAF87B681B686021184600F003F9EF
:1022FC001BE07B6818683B6859683B68DB681A46CA
:10230C0000F09CF87B681B684021184600F0F3F83D
:10231C000BE07B681A683B681B681946104600F096
:10232C00EAF802E000BF00E000BF7B68012283F8FE
:10233C003D207B68002283F83C2000231846103790
:10234C00BD4680BD80B483B000AF786000BF0C3751
:10235C00BD4680BC704780B483B000AF786000BFCE
:10236C000C37BD4680BC704780B483B000AF78603A
:10237C0000BF0C37BD4680BC704780B483B000AF43
:10238C00786000BF0C37BD4680BC704780B485B008
:10239C0000AF786039607B681B68FB607B68254AFE
:1023AC00934207D07B68B3F1804F03D07B68224AFD
:1023BC00934208D1FB6823F07003FB603B685B68B9
:1023CC00FA681343FB607B681A4A934207D07B6818
:1023DC00B3F1804F03D07B68174A934208D1FB6856
:1023EC0023F44073FB603B68DB68FA681343FB60C3
:1023FC00FB6823F080023B685B691343FB607B68DE
:10240C00FA681A603B689A687B68DA623B681A68FB
:10241C007B689A627B68074A934203D13B681A69CE
:10242C007B681A637B6801225A6100BF1437BD4672
:10243C0080BC7047002C01400004004080B487B081
:10244C0000AFF860B9607A60FB681B6A7B61FB685F
:10245C001B6A23F00102FB681A62FB689B693B61F3
:10246C003B6923F0F0033B617B681B013A69134322
:10247C003B617B6923F00A037B617A69BB68134378
:10248C007B61FB683A699A61FB687A691A6200BFE2
:10249C001C37BD4680BC704780B487B000AFF86075
:1024AC00B9607A60FB681B6A23F01002FB681A6241
:1024BC00FB689B697B61FB681B6A3B617B6923F44E
:1024CC0070437B617B681B037A6913437B613B69B7
:1024DC0023F0A0033B61BB681B013A6913433B61CA
:1024EC00FB687A699A61FB683A691A6200BF1C370B
:1024FC00BD4680BC704780B485B000AF7860396051
:10250C007B689B68FB60FB6823F07003FB603A6898
:10251C00FB68134343F00703FB607B68FA689A601F
:10252C0000BF1437BD4680BC704780B487B000AF85
:10253C00F860B9607A603B60FB689B687B617B6983
:10254C0023F47F437B613B681A027B681A43BB68A8
:10255C0013437A6913437B61FB687A699A6000BF05
:10256C001C37BD4680BC704780B485B000AF786026
:10257C0039607B6893F83C30012B01D1022341E098
:10258C007B68012283F83C207B68022283F83D2083
:10259C007B681B685B68FB607B681B689B68BB6027
:1025AC00FB6823F07003FB603B681B68FA681343FD
:1025BC00FB607B681B68FA685A607B681B68144A6E
:1025CC00934209D07B681B68B3F1804F04D07B68C1
:1025DC001B68104A93420CD1BB6823F08003BB608C
:1025EC003B685B68BA681343BB607B681B68BA685E
:1025FC009A607B68012283F83D207B68002283F877
:10260C003C20002318461437BD4680BC704700BFE1
:10261C00002C01400004004080B483B000AF78600F
:10262C0000BF0C37BD4680BC704780B483B000AF90
:10263C00786000BF0C37BD4680BC704770B5002673
:10264C000C4D0D4C641BA410A64209D100F022F8CD
:10265C0000260A4D0A4C641BA410A64205D170BD7D
:10266C0055F8043B98470136EEE755F8043B98477C
:10267C000136F2E7D8260008D8260008D82600082C
:10268C00DC26000803460244934200D1704703F84D
:10269C00011BF9E7F8B500BFF8BC08BC9E467047B3
:0C26AC00F8B500BFF8BC08BC9E467047A3
:1026B80002030405060708090A0B0C0D0E0F10107B
:1026C80000000000000000000102030406070809DA
:0426D80031010008C4
:0426DC000D010008E4
:1026E0000100000000200040008000000100000008
:1026F00001000000010000000100000001000000D6
:1027000001000000060000000300000002000000BD
:1027100001000000000000000000000000000000B8
:1027200000000000000000000000000000000000A9
:102730000100000000000000000000000000000098
:102740000200000000000000000000000000000087
:102750000300000001000200040008003F00060022
:102760005B004F0066006D007D0007007F006F007A
:102770000024F4000A00000014000000F40100002E
:102780000A00000014000000F40100000A0000002C
:08279000100000000100000030
:0400000508001031AE
:00000001FF
